:020000040800F2
:10000000100700208901000813110008B10F000833
:10001000111100084302000815120008000000003A
:1000200000000000000000000000000017110008A0
:100030004502000800000000151100081911000811
:10004000A3010008A3010008A3010008A301000800
:10005000A3010008A3010008A3010008A3010008F0
:10006000470200084D02000853020008A3010008DF
:10007000A3010008A3010008A3010008A3010008D0
:10008000A3010008A3010008A3010008A3010008C0
:10009000A3010008A3010008A301000859020008F9
:1000A000A3010008A3010008A3010008A3010008A0
:1000B000A301000869110008A3010008A3010008BA
:1000C000A3010008A3010008A3010008A301000880
:1000D000A3010008A3010008A3010008A301000870
:1000E000A3010008A3010008A301000800F002F822
:1000F00000F03AF80AA090E8000C82448344AAF188
:100100000107DA4501D100F02FF8AFF2090EBAE885
:100110000F0013F0010F18BFFB1A43F0010318473B
:100120004C1100006C110000103A24BF78C878C14F
:10013000FAD8520724BF30C830C144BF04680C60ED
:10014000704700000023002400250026103A28BF35
:1001500078C1FBD8520728BF30C148BF0B60704739
:100160001FB51FBD10B510BD00F031F81146FFF7E7
:10017000F7FF01F063F800F04FF803B4FFF7F2FF68
:1001800003BC00F057F800000948804709480047C1
:10019000FEE7FEE7FEE7FEE7FEE7FEE7FEE7FEE737
:1001A000FEE7FEE704480549054A064B7047000094
:1001B00067110008ED000008100100201007002062
:1001C00010030020100300207047704770477546E9
:1001D00000F02CF8AE4605006946534620F00700B3
:1001E000854618B020B5FFF7DDFFBDE820404FF091
:1001F00000064FF000074FF000084FF0000BAC4630
:10020000ACE8C009ACE8C009ACE8C009ACE8C0097A
:1002100021F007018D46704710B50446AFF300800A
:100220002046BDE81040FFF7A8BF00000048704717
:100230001000002001491820ABBEFEE72600020096
:100240007047FEE77047042000F00CB8082000F06B
:1002500009B8102000F006B8202000F003B870475D
:100260007047000003490A68024214BF08607047E3
:10027000FFF7F6BF140401402DE9FC4F594A04234F
:100280004FF0000B4FF001084FF00F0E4FF0000938
:100290000025904208BF032300930A6832FA05F351
:1002A00008BFBDE8FC8F08FA05F73A4200F09680D7
:1002B0004A68032A16D9112A24D0122A26D04C4B78
:1002C0009A4213D04B4B9A4210D04B4B9A420DD0CE
:1002D0004A4B9A420AD04A4B9A4207D0494B9A421B
:1002E00004D020E0DFE802F00216191D8A6832B15E
:1002F000012A14BF476107614FF0080913E04FF06E
:10030000040910E0CA6802F104090CE0CA6802F1AD
:100310000C0908E0D1F80C9005E0CA6802F1080960
:1003200001E04FF000095A460446082D28BF203A44
:1003300028BF043426680EFA02F309FA02F226EA0C
:1003400003031A432260CA79D20647D5D84A0BF074
:100350000C0C1346126842F001021A601A680EFA79
:100360000CF302F0010201921F4A019CAC08A2F5B5
:100370007E7656F8242022EA030A234A904208D0C7
:10038000224A904207D0224A009B904208BF022393
:1003900002E0002300E0012303FA0CF242EA0A0221
:1003A00046F82420104E4A68D303336854BFBB4339
:1003B0003B4333609303736854BFBB433B43736059
:1003C000D302B36854BFBB433B439202B360074AB6
:1003D0001346126854BFBA433A431A600BF1040B38
:1003E00001355AE700140140000401400C040140AB
:1003F0000000111000001210000021100000221057
:10040000000031100000321000080140000C0140D3
:1004100000100140002A08BF090401617047000074
:100420007D480068704700BFB0B560B3044690F8DF
:100430003D0028B9002084F83C00204600F0B6F8C2
:10044000242084F83D002068016821F0010101604A
:10045000016841F400410160016821F4004101603C
:1004600000F004FA4C494D4B00224D4D88424FF0AC
:10047000000138BF0121984238BF01226368AB42B6
:1004800038BF0A460AB10120B0BD4649B0FBF1F2BF
:1004900021684D6825F03F0515434D600D6A25F034
:1004A0003F0C414DAB4213D80132013842EA0C02F5
:1004B0000A625A004CF6FF73B0FBF2F001306FF3A2
:1004C0001F30042898BF0420CA6922EA030C3AE0CE
:1004D0004FF49675A0F1010E6A434FF47A75B2FBA2
:1004E000F5F24CF6FF75013242EA0C020A62CA6963
:1004F00022EA050CA26842B1192004255843BEFB2C
:10050000F0F0013065F31F3006E003EB4300BEFB63
:10051000F0F001306FF31F30000509D052B11920FF
:1005200004225843BEFBF0F0013062F31F3008E0B4
:10053000012008E003EB4300BEFBF0F001306FF355
:100540001F3040F4004040EA0C00C8610868D4E95C
:10055000072320F0C000104348F2FF321843086020
:1005600088689043D4E90323184310438860C8681F
:10057000D4E9052320F0FF0010431843C860086841
:1005800040F00100086000202021206484F83D1024
:10059000206384F83E00B0BD80841E0000093D0049
:1005A000A186010040420F00A086010010B586B070
:1005B0000021CDE90411CDE9021101681148814201
:1005C0001ED13B4C00F53440216841F00801216008
:1005D000216801F00801019101990321059112217F
:1005E00003914FF44061029102A9FFF745FE606854
:1005F00040F480006060606800F480000190019821
:1006000006B010BD005800401A48034900780A6837
:1006100010440860704700BF0C01002080B590486E
:10062000016841F010010160032000F071F8002022
:1006300000F004F800F020F8002080BD70B50D4EE9
:1006400004464FF47A713078B1FBF0F08C490968B8
:10065000B1FBF0F000F0D6FA01250F2C08D838B91C
:100660004FF0FF3021460022002500F033F874607F
:10067000284670BD0000002082B00D4802220168AB
:1006800041F001010160016801F00101019101994E
:10069000416841F080514160406800F08050009016
:1006A00000980448016862F31A61016002B0704763
:1006B0001810024004000140002808DB00F01F0170
:1006C0000122400902FA01F1014A42F82010704764
:1006D00000E100E080B5144B1B68C3F3022CBCF1B1
:1006E000030E8CF007034FF0FF3C38BF4FF0000EB5
:1006F000042B28BF04230CFA03F399430CFA0EF3DE
:1007000001FA0EF19A431143BDE8804000F084BD28
:1007100005494FF6FF030A681A4060F30A220348AE
:1007200010430860704700BF0CED00E00000FA05C0
:100730002DE9F843002800F08E8088464849044699
:10074000086800F0070040450AD2086820F007005A
:1007500040EA08000860086800F0070040457AD1C8
:100760002068574B8946810711D5410742BF196858
:1007700041F4E0611960010742BF196841F460511A
:1007800019601968A26821F0F00111431960C007CF
:100790002AD06068012804D153F8041C890309D4C5
:1007A00059E053F8041C022802D1890102D452E016
:1007B000890750D519681D4621F0030108431860C8
:1007C000FFF72EFE064641F28837286861682B46FF
:1007D00000F00C00B0EB810F06D0FFF721FE801B6C
:1007E000B842F2D9032037E0D9F8000000F0070042
:1007F00040450DD9D9F8000020F0070040EA080074
:10080000C9F80000D9F8000000F00700404522D1E7
:100810002068410705D51968E26821F4E0611143B9
:100820001960000706D51868216920F4605040EA75
:10083000C10018601C4600F027F82168094AC1F37E
:100840000311515CC840ED49086007480068FFF794
:10085000F5FE002000E0012001B0BDE8F08300BFFC
:10086000002002405212000804000020E34814490E
:10087000044A00680968C1F30221515CC84070470E
:10088000080000206212000810B50D4C0D482268C7
:1008900002F00C03082B18BF10BDC2F383430AA15A
:1008A000CB5CD10302D40D48584310BD21680AA285
:1008B0005843C1F34041515CB0FBF1F010BD00BFA3
:1008C0000410024000127A0002030405060708091A
:1008D0000A0B0C0D0E0F10100102000000093D0064
:1008E0002DE9FC41002800F0408104460078C14E0B
:1008F000C0074AD0706800F00C00042817D0706858
:1009000000F00C00082802D17068C0030FD46068A2
:1009100098B1B0F5803F06D03168B0F5A02F21D155
:1009200041F480203060306840F4803020E030684E
:1009300080032AD5606840BB17E1306820F480301E
:100940003060306820F480203060FFF769FD054694
:100950003068800319D5FFF763FD411B032064292C
:10096000F6D903E121F480303060306820F4802033
:100970003060FFF755FD05463068800305D4FFF76A
:100980004FFD401B6428F7D9D1E0207880072BD594
:10099000706810F00C0F07D0706800F00C00082889
:1009A00009D17068C00306D43068800715D5206966
:1009B000012812D0D9E021698F4800297CD001217B
:1009C0000160FFF72DFD05463068800705D4FFF76D
:1009D00027FD401B0228F7D9A9E03068616920F0A3
:1009E000F80040EAC1003060207800072ED5A069E9
:1009F00078B181480121C0F88014FFF711FD054648
:100A0000706A800715D4FFF70BFD401B0228F7D949
:100A10008DE079480021C0F88014FFF701FD0546FC
:100A2000706A800712D5FFF7FBFC401B0228F7D93C
:100A30007DE072484FF4FA510068B0FBF1F001908C
:100A400000BF0198411E00280191F9D1207840078C
:100A500076D5F069C0000BD4F0694FF0010840F082
:100A60008050F061F06900F080500090009801E043
:100A70004FF00008624F3868C0050FD4386840F462
:100A800080703860FFF7CCFC05463868C00505D497
:100A9000FFF7C6FC401B6428F7D948E0E068D8B1EE
:100AA000012805D0316A05282DD141F004003062BB
:100AB000306A40F001002CE000210160FFF7B0FC3B
:100AC0000546306880077FF58FAFFFF7A9FC411B13
:100AD00003200229F5D949E0306A20F00100306294
:100AE000306A20F004003062FFF79AFC054641F2BC
:100AF0008837306A80071CD5FFF792FC411B032022
:100B0000B942F6D932E021F001003062306A20F0BB
:100B100004003062FFF784FC054641F28837306AF2
:100B2000800706D4FFF77CFC401BB842F7D90320AE
:100B30001CE0B8F1000F1EBFF06920F08050F0619A
:100B4000E769002F53D0706800F00C00082810D11E
:100B5000012F0AD07068216A00F480328A4204D1E1
:100B6000616A00F47010884241D0012002B0BDE8F3
:100B7000F0812149002088460866FFF751FC0546B0
:100B8000022F0AD147463068800110D5FFF748FC94
:100B9000411B03200229F6D9E8E73068800126D5F9
:100BA000FFF73EFC411B03200229F6D9DEE7206A4D
:100BB000B0F5803F05D17168A26821F4003111437E
:100BC00071607168626A104321F4741108437060A7
:100BD00001203866FFF724FC04463068800106D403
:100BE000FFF71EFC011B03200229F6D9BEE70020F7
:100BF000BCE700BF00100240000042420800002095
:100C000000700040411E0020B0EB116F1CBF01209E
:100C10007047044AF023516003490B70072190602C
:100C20001160704710E000E023ED00E0704770476E
:100C300090F83C300222012B28D080B580F83D206E
:100C4000012280F83C2002685368D2F808C0B2F153
:100C5000804F23F0700E0B6843EA0E035360BDE82B
:100C6000804008D02F4B9A4205D0094B9A4202D0BF
:100C7000084B9A4204D149682CF0800319439160D3
:100C80000022012180F83C2080F83D10104670477A
:100C9000002C01400008004040B310B5044690F815
:100CA0003D0028B9002084F83C00204600F020F8E0
:100CB0000220211D84F83D00206800F05BFA01202D
:100CC00084F8460084F83E0084F83F0084F8400031
:100CD00084F8410084F8420084F8430084F844001A
:100CE00084F8450084F83D00002010BD01207047C5
:100CF00000680C49884218BF7047E0B50A480022D6
:100D0000016841F0020101600321006800F0020067
:100D1000019001981D20FFF7DDFC1D20BDE88C40EF
:100D2000FFF7CABC000400401C10024010B590F848
:100D30003C2004460220012A08BF10BD84F83D0073
:100D400001204FF6777284F83C00206884465CF8F6
:100D5000083F23EA0202CCF800200B682BB1102BCD
:100D600003D0202B18BF302B0FD1DCF8000020F06F
:100D70007000184340F00700CCF80000002001216B
:100D800084F83C0084F83D1010BD402B1AD0502B45
:100D900026D0602B32D0B3F5005F3DD0702BEDD163
:100DA000D1E90102C968104340EA0120DCF80010D3
:100DB00021F47F410843CCF80000DCF8000040F04B
:100DC0007700D9E74B68CA68194600F001FAD4F8F1
:100DD00000C05CF8080F40F0470020F03000CBE77F
:100DE0004B68CA68194600F0F3F9D4F800C05CF803
:100DF000080F40F0570020F02000BDE74B68CA689C
:100E0000194600F0F6F9D4F800C05CF8080F40F07D
:100E1000670020F01000AFE7D1E90102C968104374
:100E200040EA0120DCF8001021F47F410843CCF8AF
:100E30000000DCF8000040F480409DE7704710B5EA
:100E4000044600680169890744BFC1685FEA81718F
:100E500038D40169490744BFC1685FEA41713DD494
:100E60000169090744BFC1685FEA017143D40169A0
:100E7000C90644BFC1685FEAC16148D40169C907B6
:100E80001CBFC1685FEAC1714ED10169090644BF48
:100E9000C1685FEA01614FD40169490644BFC16876
:100EA0005FEA416150D40169890646BFC1685FEAC3
:100EB000816110BD6FF0200101612046BDE8104046
:100EC000FFF7B5BE6FF00201016101212177806952
:100ED000800741D02046FFF7B1FF43E06FF00401E7
:100EE000016102212177806910F4407F3ED02046C5
:100EF000FFF7A4FF40E06FF00801016104212177B2
:100F0000C06980073CD02046FFF798FF3EE06FF0B5
:100F10001001016108212177C06910F4407F39D0A8
:100F20002046FFF78BFF3BE06FF001010161204697
:100F300000F03CF82068A8E76FF0800101612046CE
:100F4000FFF774FE2068A7E76FF0400101612046BB
:100F500000F02DF82068A6E7204600F025F820468E
:100F600000F023F800202077206872E7204600F088
:100F70001BF8204600F019F80020207720686FE762
:100F8000204600F011F8204600F00FF800202077EE
:100F900020686CE7204600F007F8204600F005F8CE
:100FA00000202077206869E77047704770477047D6
:100FB000FEE700007FB52948294C0122012601687F
:100FC00041F020010160016801F0200100910099C9
:100FD000016841F004010160016801F00401009121
:100FE0000099016841F0080101600121006800F0EA
:100FF0000800009000982046FFF70CFA02206D468A
:1010000003900020294602902046CDE90066FFF7B4
:1010100033F914480296294601903C20009020465E
:10102000FFF72AF9104C082002210022A0470F4D9B
:101030000820A847092002210022A0470920A8472C
:101040000A2002210022A0470A20A84717200221D7
:101050000022A0471720A8477FBD00BF18100240FC
:101060000008014000002110D5060008B90600085C
:1010700010B50C480C4B0D4C00224FF4804102621D
:10108000C0E90043C0E90222C0E90412C0E9062217
:10109000FFF7CAF9002814BFBDE8104010BDFFF7E4
:1010A000DEB800BF70000020801A06000058004023
:1010B00010B586B02E48444C002140F6C31241F6CC
:1010C0001F43CDE90411CDE902118161C0E900435C
:1010D000C0E902120161CDE90011FFF7DDFD08B1A1
:1010E000FFF7BDF84FF4805002A902902048FFF7A7
:1010F0001DFE08B1FFF7B3F800206946CDE90000F6
:101100001B48FFF795FD08B1FFF7A9F806B010BD21
:10111000FEE7704770477047FFF776BAB0B590B0FA
:1011200000244FF4E01002250121CDE90B44CDE964
:1011300009440F904FF480300E900D950A91089459
:10114000CDE9061006A8FFF7CBFB4FF480600594AD
:10115000022104900F20CDE90254019001A8FFF76D
:10116000E7FA10B0B0BD70470148FFF768BE00BF96
:10117000C4000020B0B50368124DB0F1804F07D015
:10118000114CA04204D0A84202D0104CA04207D17A
:101190004C6823F45C73CA6824F4407423431343FB
:1011A0004A6923F08003A84242EA030202608A6887
:1011B000C2620A68826204BF096929630121416130
:1011C000B0BD00BF002C01400004004000080040FA
:1011D000D0F820C0036A23F001030362836923F07F
:1011E000F00343EA021282612CF00A021143016209
:1011F0007047036A23F010030362836923F470438A
:1012000043EA0232036A826123F0A00242EA01113A
:1012100001627047FEE7000010B5074C00F00F03B5
:10122000044AB0F1FF3F2344C8BF83180801187077
:1012300010BD00BF00E400E014ED00E0FFF7EEF9A0
:10124000FFF76CFFFFF7B6FEFFF712FFFFF730FF67
:10125000FEE7000000000000000001020304060792
:1012600008090000000001020304000090120008B9
:10127000000000201000000028010008A012000853
:1012800010000020000700004401000800000000DA
:1012900001000000100000000024F4000000000025
:04000005080000ED02
:00000001FF
