:020000040800F2
:10000000280F0020C10100082B150008EF1100087F
:1000100029150008B90200080119000800000000B5
:1000200000000000000000000000000001180008AF
:10003000BB020008000000002D150008031800088E
:10004000DB010008DB010008DB010008DB01000820
:10005000DB010008DB010008DB010008DB01000810
:10006000BD020008C3020008C9020008DB01000845
:10007000DB010008DB010008DB010008DB010008F0
:10008000DB010008DB010008DB010008DB010008E0
:10009000DB010008DB010008DB010008CF020008DB
:1000A000DB010008DB010008DB010008DB010008C0
:1000B000DB01000855180008DB010008DB0100081F
:1000C000DB010008DB010008DB010008DB010008A0
:1000D000DB010008DB010008DB010008DB01000890
:1000E000DB010008DB010008DB01000800F002F87A
:1000F00000F03CF80AA090E8000C82448344AAF186
:100100000107DA4501D100F031F8AFF2090EBAE883
:100110000F0013F0010F18BFFB1A43F0010318473B
:10012000281B0000481B0000103A24BF78C878C183
:10013000FAD8520724BF30C830C144BF04680C60ED
:10014000704700000023002400250026103A28BF35
:1001500078C1FBD8520728BF30C148BF0B60704739
:100160001FB500F062F81FBD10B510BD00F069F8B2
:100170001146FFF7F5FF01F065FC00F087F803B4C6
:10018000FFF7F2FF03BC00F091F800000B49D1F833
:1001900000C04A685CF8043B1068184442F8040B3D
:1001A0008C4528BFA1F1DC0C8A4228BFA1F1DC02FA
:1001B000C1F800C04A6020F000407047EC00002009
:1001C0000948804709480047FEE7FEE7FEE7FEE7EB
:1001D000FEE7FEE7FEE7FEE7FEE7FEE70448054927
:1001E000054A064B7047000051180008ED00000852
:1001F00028090020280F0020280B0020280B0020B1
:100200000B4910B5A1F17C020A4CC2E93712372123
:1002100006E000EB104342F82130074B00FB03409F
:100220000B1EA1F10101F4DC10BD0120E8E7000084
:100230008C000020E119D666CD0D01007047704793
:100240007047754600F02CF8AE46050069465346E7
:1002500020F00700854618B020B5FFF7BFFFBDE8C6
:1002600020404FF000064FF000074FF000084FF01D
:10027000000BAC46ACE8C009ACE8C009ACE8C0096A
:10028000ACE8C00921F007018D46704710B504465F
:10029000AFF300802046BDE81040FFF770BF0000BC
:1002A00000487047F4000020704700000149182002
:1002B000ABBEFEE726000200FEE77047042000F018
:1002C00013B8082000F010B8102000F00DB820205E
:1002D00000F00AB8704700000248022180F8241399
:1002E000704700BFF805002003490A68024214BFA6
:1002F00008607047FFF7F0BF140401402DE9FC4F80
:10030000594A04234FF0000B4FF001084FF00F0E35
:100310004FF000090025904208BF032300930A68AC
:1003200032FA05F308BFBDE8FC8F08FA05F73A4238
:1003300000F096804A68032A16D9112A24D0122A7E
:1003400026D04D4B9A4213D04C4B9A4210D04C4B76
:100350009A420DD04B4B9A420AD04B4B9A4207D04F
:100360004A4B9A4204D020E0DFE802F00216191D41
:100370008A6832B1012A14BF476107614FF008094A
:1003800013E04FF0040910E0CA6802F104090CE020
:10039000CA6802F10C0908E0D1F80C9005E0CA68BF
:1003A00002F1080901E04FF000095A460446082D01
:1003B00028BF203A28BF043426680EFA02F309FA4F
:1003C00002F226EA03031A432260CA79D20647D50D
:1003D000284A0BF00C0C1346126842F001021A6016
:1003E0001A680EFA0CF302F0010201921F4A019CF6
:1003F000AC08A2F57E7656F8242022EA030A244AA5
:10040000904208D0234A904207D0234A009B904252
:1004100008BF022302E0002300E0012303FA0CF2EC
:1004200042EA0A0246F82420104E4A68D303336891
:1004300054BFBB433B4333609303736854BFBB4318
:100440003B437360D302B36854BFBB433B43920248
:10045000B360074A1346126854BFBA433A431A605E
:100460000BF1040B01355AE7001401400004014070
:100470000C0401401810024000001110000012107E
:100480000000211000002210000031100000321086
:1004900000080140000C014000100140002A08BF84
:1004A0000904016170470000E5480068704700BF1B
:1004B000B0B560B3044690F83D0028B9002084F838
:1004C0003C00204600F086F9242084F83D00206896
:1004D000016821F001010160016841F400410160FF
:1004E000016821F40041016000F0D4FA4C494D4B01
:1004F00000224D4D88424FF0000138BF0121984243
:1005000038BF01226368AB4238BF0A460AB10120F6
:10051000B0BD4649B0FBF1F221684D6825F03F05BA
:1005200015434D600D6A25F03F0C414DAB4213D889
:100530000132013842EA0C020A625A004CF6FF739B
:10054000B0FBF2F001306FF31F30042898BF042095
:10055000CA6922EA030C3AE04FF49675A0F1010E45
:100560006A434FF47A75B2FBF5F24CF6FF7501322F
:1005700042EA0C020A62CA6922EA050CA26842B188
:10058000192004255843BEFBF0F0013065F31F30FD
:1005900006E003EB4300BEFBF0F001306FF31F30C9
:1005A000000509D052B1192004225843BEFBF0F0D7
:1005B000013062F31F3008E0012008E003EB430044
:1005C000BEFBF0F001306FF31F3040F4004040EA12
:1005D0000C00C8610868D4E9072320F0C00010436C
:1005E00048F2FF321843086088689043D4E9032337
:1005F000184310438860C868D4E9052320F0FF0041
:1006000010431843C860086840F0010008600020EB
:100610002021206484F83D10206384F83E00B0BDA2
:1006200080841E0000093D00A186010040420F00A9
:10063000A08601002DE9FC471F4616468946044660
:10064000FFF732FF824694F83D0020280ED1604D1E
:10065000204601221923CDF800A005F5702100F0F5
:1006600006FE18B994F83C00012803D1022002B01C
:10067000BDE8F0870120A5F10212DDF8288084F89A
:100680003C0020680168C90702BF016841F0010110
:100690000160016821F400610160212184F83D10AE
:1006A000102184F83E10002121646785618DE2628B
:1006B00066622185E16A11F5803F18BF01291BD1CF
:1006C000016841F48071016020464FF00111002261
:1006D0004346CDF800A000F0CAFD38B1206800689C
:1006E000C00544BF4FF40070206424E02069B0F5D9
:1006F000804F07D1FE2013E00829E1D0216B122999
:10070000DED0E1E7062021684246534600EAD910D0
:10071000F0300861A91D204600F0E4FD58B9FF2023
:10072000216800EA090042465346086120462946EE
:1007300000F0D8FD08B1012099E700200190206861
:1007400041690191806901900198208D88B320460C
:100750004146524600F011FE10BB606A2168024615
:1007600012F8013B0B616262628D013A6285228D53
:10077000571E27853F044B6918BF13F0040308D0A8
:10078000437802300B616062901E2085608D0138D5
:10079000608520464146524600F042FD0028D4D0F4
:1007A000206C0428C7D12068016841F40071016001
:1007B000C1E72068016841F400710160202084F8DD
:1007C0003D00002084F83C0084F83E004FE700BF65
:1007D0000200010010B586B00021CDE90411CDE979
:1007E00002110168114881421ED13B4C00F5344092
:1007F000216841F008012160216801F008010191A0
:10080000019903210591122103914FF44061029156
:1008100002A9FFF773FD606840F4800060606068C3
:1008200000F480000190019806B010BD005800400F
:100830001A48034900780A6810440860704700BFEE
:100840002409002080B59048016841F01001016042
:10085000032000F071F8002000F004F800F020F808
:10086000002080BD70B50D4E04464FF47A7130788B
:10087000B1FBF0F08C490968B1FBF0F000F0D6FA5A
:1008800001250F2C08D838B94FF0FF30214600223F
:10089000002500F033F87460284670BD0000002089
:1008A00082B00D480222016841F001010160016837
:1008B00001F0010101910199416841F080514160CD
:1008C000406800F08050009000980448016862F38E
:1008D0001A61016002B07047181002400400014024
:1008E000002808DB00F01F010122400902FA01F193
:1008F000014A42F82010704700E100E080B5144B37
:100900001B68C3F3022CBCF1030E8CF007034FF0FD
:10091000FF3C38BF4FF0000E042B28BF04230CFA15
:1009200003F399430CFA0EF301FA0EF19A431143C3
:10093000BDE8804000F0E6BF05494FF6FF030A68B6
:100940001A4060F30A22034810430860704700BF52
:100950000CED00E00000FA052DE9F843002800F056
:100960008E80884648490446086800F007004045E4
:100970000AD2086820F0070040EA0800086008680A
:1009800000F0070040457AD12068574B894681071F
:1009900011D5410742BF196841F4E06119600107B0
:1009A00042BF196841F4605119601968A26821F0CA
:1009B000F00111431960C0072AD06068012804D1F2
:1009C00053F8041C890309D459E053F8041C022885
:1009D00002D1890102D452E0890750D519681D4619
:1009E00021F0030108431860FFF75EFD064641F25F
:1009F0008837286861682B4600F00C00B0EB810F47
:100A000006D0FFF751FD801BB842F2D9032037E032
:100A1000D9F8000000F0070040450DD9D9F80000D2
:100A200020F0070040EA0800C9F80000D9F80000EB
:100A300000F00700404522D12068410705D519681C
:100A4000E26821F4E06111431960000706D51868D7
:100A5000216920F4605040EAC10018601C4600F093
:100A600027F82168094AC1F30311515CC840ED49D8
:100A7000086007480068FFF7F5FE002000E001204D
:100A800001B0BDE8F08300BF00200240301C000828
:100A900004000020E3481449044A00680968C1F3CF
:100AA0000221515CC840704708000020401C00082B
:100AB00010B50D4C0D48226802F00C03082B18BF2E
:100AC00010BDC2F383430AA1CB5CD10302D40D480D
:100AD000584310BD21680AA25843C1F34041515CFC
:100AE000B0FBF1F010BD00BF0410024000127A000C
:100AF00002030405060708090A0B0C0D0E0F10105F
:100B00000102000000093D002DE9FC41002800F031
:100B1000408104460078C14EC0074AD0706800F09A
:100B20000C00042817D0706800F00C00082802D1CF
:100B30007068C0030FD4606898B1B0F5803F06D0EC
:100B40003168B0F5A02F21D141F4802030603068A9
:100B500040F4803020E0306880032AD5606840BBD4
:100B600017E1306820F480303060306820F4802055
:100B70003060FFF799FC05463068800319D5FFF710
:100B800093FC411B03206429F6D903E121F4803052
:100B90003060306820F480203060FFF785FC054627
:100BA0003068800305D4FFF77FFC401B6428F7D929
:100BB000D1E0207880072BD5706810F00C0F07D09B
:100BC000706800F00C00082809D17068C00306D4D2
:100BD0003068800715D52069012812D0D9E0216935
:100BE0008F4800297CD001210160FFF75DFC05469C
:100BF0003068800705D4FFF757FC401B0228F7D95F
:100C0000A9E03068616920F0F80040EAC100306076
:100C1000207800072ED5A06978B181480121C0F85D
:100C20008014FFF741FC0546706A800715D4FFF772
:100C30003BFC401B0228F7D98DE079480021C0F821
:100C40008014FFF731FC0546706A800712D5FFF764
:100C50002BFC401B0228F7D97DE072484FF4FA5173
:100C60000068B0FBF1F0019000BF0198411E002820
:100C70000191F9D12078400776D5F069C0000BD4F6
:100C8000F0694FF0010840F08050F061F06900F029
:100C900080500090009801E04FF00008624F3868E3
:100CA000C0050FD4386840F480703860FFF7FCFB53
:100CB00005463868C00505D4FFF7F6FB401B6428DD
:100CC000F7D948E0E068D8B1012805D0316A052895
:100CD0002DD141F004003062306A40F001002CE078
:100CE00000210160FFF7E0FB0546306880077FF5D3
:100CF0008FAFFFF7D9FB411B03200229F5D949E04B
:100D0000306A20F001003062306A20F00400306266
:100D1000FFF7CAFB054641F28837306A80071CD5C9
:100D2000FFF7C2FB411B0320B942F6D932E021F0A4
:100D300001003062306A20F004003062FFF7B4FB3B
:100D4000054641F28837306A800706D4FFF7ACFBCE
:100D5000401BB842F7D903201CE0B8F1000F1EBFBA
:100D6000F06920F08050F061E769002F53D070687F
:100D700000F00C00082810D1012F0AD07068216AF9
:100D800000F480328A4204D1616A00F47010884213
:100D900041D0012002B0BDE8F08121490020884601
:100DA0000866FFF781FB0546022F0AD147463068E7
:100DB000800110D5FFF778FB411B03200229F6D9EB
:100DC000E8E73068800126D5FFF76EFB411B032062
:100DD0000229F6D9DEE7206AB0F5803F05D17168B7
:100DE000A26821F40031114371607168626A104396
:100DF00021F474110843706001203866FFF754FB3A
:100E000004463068800106D4FFF74EFB011B032027
:100E10000229F6D9BEE70020BCE700BF001002405F
:100E2000000042420800002000700040411E0020E7
:100E3000B0EB116F1CBF01207047044AF0235160D2
:100E400003490B70072190601160704710E000E0CB
:100E500023ED00E07047704790F83C300222012BF0
:100E600028D080B580F83D20012280F83C2002681F
:100E70005368D2F808C0B2F1804F23F0700E0B68AF
:100E800043EA0E035360BDE8804008D0D54B9A4238
:100E900005D0094B9A4202D0084B9A4204D14968C6
:100EA0002CF08003194391600022012180F83C203E
:100EB00080F83D1010467047002C014000080040AB
:100EC00040B310B5044690F83D0028B9002084F8DE
:100ED0003C00204600F020F80220211D84F83D004F
:100EE000206800F0BDFC012084F8460084F83E0034
:100EF00084F83F0084F8400084F8410084F8420000
:100F000084F8430084F8440084F8450084F83D00E8
:100F1000002010BD012070470068B249884218BF08
:100F20007047E0B509480022016841F00201016004
:100F30000321006800F00200019001981D20FFF7D6
:100F4000DDFC1D20BDE88C40FFF7CABC1C10024030
:100F500010B590F83C2004460220012A08BF10BDBD
:100F600084F83D0001204FF6777284F83C00206839
:100F700084465CF8083F23EA0202CCF800200B68A4
:100F80002BB1102B03D0202B18BF302B0FD1DCF846
:100F9000000020F07000184340F00700CCF800007B
:100FA0000020012184F83C0084F83D1010BD402B46
:100FB0001AD0502B26D0602B32D0B3F5005F3DD035
:100FC000702BEDD1D1E90102C968104340EA01203C
:100FD000DCF8001021F47F410843CCF80000DCF875
:100FE000000040F07700D9E74B68CA68194600F066
:100FF00065FCD4F800C05CF8080F40F0470020F012
:101000003000CBE74B68CA68194600F057FCD4F8AB
:1010100000C05CF8080F40F0570020F02000BDE74A
:101020004B68CA68194600F05AFCD4F800C05CF856
:10103000080F40F0670020F01000AFE7D1E901028F
:10104000C968104340EA0120DCF8001021F47F4118
:101050000843CCF80000DCF8000040F480409DE735
:10106000704710B5044600680169890744BFC1682C
:101070005FEA817138D40169490744BFC1685FEAFA
:1010800041713DD40169090744BFC1685FEA01713C
:1010900043D40169C90644BFC1685FEAC16148D44D
:1010A0000169C9071CBFC1685FEAC1714ED10169FE
:1010B000090644BFC1685FEA01614FD4016949066E
:1010C00044BFC1685FEA416150D40169890646BFE7
:1010D000C1685FEA816110BD6FF0200101612046A7
:1010E000BDE81040FFF7B7BE6FF0020101610121BA
:1010F00021778069800741D02046FFF7B1FF43E0A8
:101100006FF00401016102212177806910F4407FB2
:101110003ED02046FFF7A4FF40E06FF008010161D8
:1011200004212177C06980073CD02046FFF798FF53
:101130003EE06FF01001016108212177C06910F4D1
:10114000407F39D02046FFF78BFF3BE06FF0010175
:101150000161204600F03CF82068A8E76FF08001AC
:1011600001612046FFF776FE2068A7E76FF0400197
:101170000161204600F03AF82068A6E7204600F01A
:1011800025F8204600F023F800202077206872E739
:10119000204600F01BF8204600F019F800202077C8
:1011A00020686FE7204600F011F8204600F00FF8A5
:1011B0000020207720686CE7204600F007F82046E2
:1011C00000F005F800202077206869E77047704735
:1011D0000068D449884218BF704703480121016064
:1011E000704700BF00040040200900207047FEE760
:1011F0000268516949054FF000010FD56FF4806313
:1012000053612022016380F83D2080F83E1080F871
:101210003C10016C41F00401016401210846704753
:10122000F8B515460E4604464F1C20684069400735
:101230001AD42046FFF7DCFFA0B9002FF5D0FFF746
:1012400033F916B1401BB042EFD9002020212063B2
:1012500084F83D1084F83E0084F83C00206C40F097
:1012600020002064012000E0002001B0F0BD2DE945
:10127000F047DDF820909A46164680468FB201F47A
:101280007F045D1C1820B4F5803F08BF1420D8F8F7
:10129000001008583840C01BB0FA80F04009B04236
:1012A0001CBF0020BDE8F087002DEBD0FFF7FCF855
:1012B000BAF1000F03D0A0EB09005045E2D900209D
:1012C0002021C8F8300088F83D1088F83E0088F8E2
:1012D0003C00D8F8400040F02000C8F84000012051
:1012E000BDE8F0872DE9F8439846164681468FB24F
:1012F00001F47F05541CD9F80000B5F5803F0CBF00
:10130000416981693940B9421AD04169490519D406
:10131000002CF0D0FFF7C8F81EB1A0EB0800B042D7
:10132000E9D900202021C9F8300089F83D1089F85A
:101330003E0089F83C00D9F8400040F0200016E05B
:10134000002017E0016841F4007101606FF48061D2
:10135000416100202021C9F8300089F83D1089F84A
:101360003E0089F83C00D9F8400040F00400C9F87C
:101370004000012001B0BDE8F083F8B515460E46E7
:1013800004464F1C2068406900061AD42046FFF727
:101390002FFFA0B9002FF5D0FFF786F816B1401B3C
:1013A000B042EFD900202021206384F83D1084F85A
:1013B0003E0084F83C00206C40F0200020640120B6
:1013C00000E0002001B0F0BD7FB52948294C012282
:1013D0000126016841F020010160016801F020014F
:1013E00000910099016841F004010160016801F079
:1013F000040100910099016841F008010160012198
:10140000006800F00800009000982046FFF746F8BA
:1014100002206D4603900020294602902046CDE927
:101420000066FEF76BFF14480296294601903C20A7
:1014300000902046FEF762FF104C08200221002297
:10144000A0470F4D0820A847092002210022A047ED
:101450000920A8470A2002210022A0470A20A84705
:10146000172002210022A0471720A8477FBD00BFF8
:10147000181002400008014000002110FD0800087B
:10148000E108000810B50C480C4B0D4C00224FF43D
:1014900080410262C0E90043C0E90222C0E90412AF
:1014A000C0E90622FFF704F8002814BFBDE8104089
:1014B00010BDFEF70FBF00BF5C050020801A0600BC
:1014C0000058004010B586B0E448FA4C002140F6C0
:1014D000C31241F61F43CDE90411CDE90211816128
:1014E000C0E90043C0E902120161CDE90011FFF734
:1014F000E7FC08B1FEF7EEFE4FF4805002A902901F
:10150000D648FFF725FD08B1FEF7E4FE0020694646
:10151000CDE90000D148FFF79FFC08B1FEF7DAFEE5
:1015200006B010BD00040040FEE7704770470000A1
:101530002DE9F04F89B004465018DFF814811546A4
:101540000E461A461F461FFA84F981B24846C04724
:10155000701B3A4681B24846C04728190696B6B273
:101560003A461FFA80FA31465046C047601B029443
:1015700031463A4684B22046C0472046314652465C
:10158000334603970097A94600F066F8A5EB45009F
:10159000DDF80CA0DDF818B0DFF8B880C5F1010364
:1015A00000270122400005904FF6FE70013000B286
:1015B00004900FFA89F039B28142A4BF09B0BDE8A6
:1015C000F08F049918B20892884207DD0598A9F1B6
:1015D00001090146811C0B44084605910793013718
:1015E00009EB0B00CDF800A03E46029F81B20B46EE
:1015F000B81B85B2F01984B228462246C047ABEB2F
:1016000009002A46CDF800A081B220460B46C0470B
:1016100009EB0700CDF800A084B2A7EB090037461C
:1016200086B207EB0B0081B2204632460B46C0471C
:10163000ABEB07003246CDF800A081B220460B4646
:10164000C047089800B2821C079810440346B0E7D0
:101650006D170008591600082DE9F04F85B00546B2
:101660007F284FF07F070C464FF0FF3628BF3D46DE
:101670007F2A38BF17463F22E81B38BF781B3F2917
:1016800028BF14464FEA004C3F2B38BF1A464FF094
:10169000FF33A11A38BF111B38BF0123BD4203938A
:1016A00038BF01260496BCF1000F34D00FFA81F93F
:1016B000B9F1000F44D00FFA80FBC9F1000102928A
:1016C00000975846CB450191CBF10008D8BF08B22E
:1016D000022190FBF1FA10E00FFA8AF04845B8BFFA
:1016E000DA4401994045C8BF8A4403994845B8BFC8
:1016F0000C4440450498C8BF0544AFB2A6B20E9A48
:101700003846314600F032F802988642E4D100981B
:101710008742E1D126E0A242164638BF2646AF42B4
:1017200038BF3D46A24238BF144605E00E9AA1B22A
:10173000284600F01BF8013420B2B042F6DD11E07B
:10174000AF423E463CBF2E463D46A24238BF1446FD
:1017500005E00E9AA8B2214600F008F8013528B23B
:10176000B042F6DD05B0BDE8F08F000080B57F28FF
:1017700098BF3F2900D980BD0F4BB2FA82FC1B787D
:10178000002B18BF4FEA5C1201F0070C012303FA8B
:101790000CFE6FF07003DFF860C0012A03EA01114C
:1017A00008441CF8001014BF21EA0E0141EA0E01A2
:1017B0000CF8001080BD00BF5401002070B50E4C25
:1017C0000E4E0025082D08BF70BDA5F15000002168
:1017D000C2B27820B047782000210022B04778209C
:1017E00000211022B047782040212246802300F0BB
:1017F00001FA80340135E5E758010020D51B0008C7
:101800007047FFF715B8B0B590B000244FF4E01062
:1018100002250121CDE90B44CDE909440F904FF495
:1018200080300E900D950A910894CDE9061006A817
:10183000FFF76AF94FF480600594022104900F20AD
:10184000CDE90254019001A8FFF786F810B0B0BDB1
:10185000704700000148FFF704BC00BFB00500203E
:10186000B0B50368124DB0F1804F07D0114CA042C3
:1018700004D0A84202D0104CA04207D14C6823F4F7
:101880005C73CA6824F44074234313434A6923F009
:101890008003A84242EA030202608A68C2620A68C0
:1018A000826204BF0969296301214161B0BD00BFA3
:1018B000002C01400004004000080040D0F820C087
:1018C000036A23F001030362836923F0F00343EA10
:1018D000021282612CF00A02114301627047036A0E
:1018E00023F010030362836923F4704343EA023256
:1018F000036A826123F0A00242EA0111016270478B
:10190000FEE7000010B5074C00F00F03044AB0F1E9
:10191000FF3F2344C8BF83180801187010BD00BFE3
:1019200000E400E014ED00E0A84C032084F8240358
:101930000420C4F82003FEF729FC322590FBF5F1C2
:1019400001FB150000F10B01A16100F10E01216105
:1019500000F111011430A1602060FEF717FC90FB2C
:10196000F5F101FB150000251430E0616061E060D5
:1019700060600AE004EBC50134F93500032201235D
:10198000B1F90410FFF7D4FD0135D4F820038542E6
:10199000F0DBFFF713FF00F003F800BF704770475C
:1019A000ADF54A7DDFF89480884E0DF54879D8F87A
:1019B000000006F110070028FDD0484600F074F83A
:1019C00000F0C0F8D6F82003C89D411E56F831201B
:1019D000AA421CD106EBC101C99C4968A14217D19A
:1019E000411CC6F8201356F83010DDE9C82346F82C
:1019F000302006EBC00042684360D6F8200306EBB7
:101A0000C00040E90412484600F04EF811E0C99CBD
:101A100000F088F8CDE9C65439466A46084851F8BE
:101A2000043B043842F8043BF9D196E80F0000F07B
:101A300050F80020C8F80000BDE700BF20090020D2
:101A400018030000FEF7FEFEFFF7DDFEFFF7BCFC0B
:101A5000FFF718FDFFF736FD114C0120207000F054
:101A6000B7F81420142103220123FFF761FDFFF7CB
:101A7000A5FE20780428FCD8DFE800F00306090C56
:101A80000F00FFF78CFFF4E7FFF74EFFF1E700F0E0
:101A90000AF8EEE7FFF782FFEBE700F003F8E8E76C
:101AA000580500207047704710B50446FEF76EFBDE
:101AB000C11700EB516121F07F01401A2060FEF751
:101AC00065FBC11700EB916121F03F01401A606096
:101AD00010BD84B02DE9F0410DF1180CACE80F00F9
:101AE00006A8051FA0F10807DDE9D068CE9809E037
:101AF000441E35F9301037F9300003220123FFF777
:101B000017FD20460028F3DC30B20FFA88F10322DB
:101B10000123FFF70DFDFFF751FEBDE8F04104B0D2
:101B2000704700002949D1F8200301EBC0010839B2
:101B300005E00A68013841F8082DCA684A600028A3
:101B4000F7DC7047214890F82413032988BF7047B9
:101B5000DFE801F0022C0E1ED0F8201300EBC100CC
:101B600050F8041CCA1701EB926222F03F021AE0FF
:101B7000D0F8201300EBC10050F8041CCA1701EB89
:101B8000526222F07F02891A013940F8081C70471E
:101B9000D0F8201300EBC10050F8041CCA1701EB69
:101BA000526222F07F02891A01310CE0D0F8201332
:101BB00000EBC10050F8041CCA1701EB926222F03E
:101BC0003F02891A013940F8041C7047F8050020CB
:101BD00070470000E0B503460A208DF807208DF815
:101BE00006100DF106020090104819460223FEF778
:101BF00021FD8CBD10B5C2B0844600200DF1080E49
:101C00008DF8081003E0545C714401304C70C1B28F
:101C10009942F8D30A2002AA61460090581C83B268
:101C20000248FEF707FD42B010BD00BF5C05002072
:101C3000000000000000000001020304060708097C
:101C40000000000001020304681C000800000020DE
:101C50001000000028010008781C00081000002077
:101C6000180F0000440100080100000010000000EF
:081C70000024F4000000000054
:04000005080000ED02
:00000001FF
